:100000000C942A000C9434000C9434000C943400AA
:100010000C9434000C9434000C9434000C94340090
:100020000C9434000C9434000C9434000C94340080
:100030000C9434000C9434000C9434000C94340070
:100040000C9434000C9434000C9434000C94340060
:100050000C94340011241FBECFE5D4E0DEBFCDBF29
:100060000E9436000C9456000C9400008FEF8ABB5F
:1000700061E044ED50E329E130E06BBBCA01019738
:10008000F1F71BBACA010197F1F76BBB80E197E268
:10009000F9013197F1F70197D9F71BBA80E197E29F
:1000A000F9013197F1F70197D9F7E7CFF894FFCF2E
:00000001FF
