:100000000C942A000C9434000C9434000C943400AA
:100010000C9434000C9434000C9434000C94340090
:100020000C9434000C9434000C9434000C94340080
:100030000C9434000C9434000C9434000C94340070
:100040000C9434000C9434000C9434000C94340060
:100050000C94340011241FBECFE5D4E0DEBFCDBF29
:100060000E9436000C94CE000C9400000F931F9356
:10007000CF93DF9311BA8FEF87BB82BBAAE0C0E5B5
:10008000D3EC69E049E150E0B5E076E004E214EF3A
:1000900080B390E0803F910511F4A8BB3DC0883F3C
:1000A000910599F4B8BB20EA3FE0FA013197F1F7E6
:1000B00021503040D1F768BB20E737E1FA01319792
:1000C000F1F721503040D1F749C0843F910599F4B0
:1000D000B8BB20EA3FE0FA013197F1F721503040F8
:1000E000D1F778BB28EB3BE0FA013197F1F72150CB
:1000F0003040D1F738C0823F910571F4A8BBFE01B2
:100100003197F1F768BB28EB3BE0FA013197F1F743
:1001100021503040D1F72CC0813F910571F4A8BB2C
:10012000FE013197F1F768BB28EB3BE0FA0131970C
:10013000F1F721503040D1F720C08C3F910571F488
:10014000B8BBF8013197F1F768BB28EB3BE0FA0147
:100150003197F1F721503040D1F717C0893F910511
:1001600011F478BB0DC0833F910511F4A8BB0DC0FD
:10017000863F910511F478BB0BC08E3F910519F0B5
:10018000873F910511F478BB83CF8B3F910521F018
:100190008D3F910509F07CCF68BB7ACFF894FFCFF3
:00000001FF
