:100000000C946A000C9492000C9492000C94920050
:100010000C9492000C9492000C9492000C94920018
:100020000C9492000C946B0A0C9492000C94920025
:100030000C9492000C9492000C9492000C949200F8
:100040000C9492000C9492000C9492000C949200E8
:100050000C9492000000000200000000000000006C
:100060000504000700000000000000000000000080
:100070000000000001020408102040800102040872
:100080001020408001020408102040800102040872
:100090001020408002020202020202020404040450
:1000A0000404040403030303030303030101010124
:1000B000010101010000390036003300300000006A
:1000C0003B0038003500320000003A0037003400B1
:1000D0003100EB0711241FBECFE5D4E0DEBFCDBF5A
:1000E00011E0A0E6B0E0E2E4F8E102C005900D9274
:1000F000A436B107D9F721E0A4E6B1E001C01D9212
:10010000A33DB207E1F710E0CAE6D0E004C02197B2
:10011000FE010E94190CC936D107C9F70E945C0A7A
:100120000C941F0C0C94000060E0809174010E94FC
:100130009E0B60E0809166000E949E0B60E08091C3
:100140006A000E949E0B60E0809168000C949E0BF8
:1001500061E0809174010E949E0B60E080916600D6
:100160000E949E0B61E080916A000E949E0B60E0FD
:10017000809168000C949E0B61E0809174010E9454
:100180009E0B60E0809166000E949E0B60E0809173
:100190006A000E949E0B60E0809168000C949E0BA8
:1001A00060E0809174010E949E0B60E08091660087
:1001B0000E949E0B61E080916A000E949E0B60E0AD
:1001C000809168000C949E0B61E0809174010E9404
:1001D0009E0B60E0809166000E949E0B60E0809123
:1001E0006A000E949E0B61E0809168000C949E0B57
:1001F00060E0809174010E949E0B61E08091660036
:100200000E949E0B61E080916A000E949E0B60E05C
:10021000809168000C949E0B8AE10E94CD0B909314
:100220007301809372018BE10E94CD0B9093710159
:10023000809370018CE10E94CD0B90936F018093AD
:100240006E018DE10E94CD0B90936D0180936C0146
:100250008EE10E94CD0B90936B0180936A016091B7
:100260007201709173014AE050E086E791E00E94CC
:10027000540A6CE670E086E791E00E94BA0960914A
:100280007001709171014AE050E086E791E00E94B0
:10029000540A6CE670E086E791E00E94BA0960912A
:1002A0006E0170916F014AE050E086E791E00E9494
:1002B000540A6CE670E086E791E00E94BA0960910A
:1002C0006C0170916D014AE050E086E791E00E9478
:1002D000540A6CE670E086E791E00E94BA096091EA
:1002E0006A0170916B014AE050E086E791E00E945C
:1002F000540A6CE670E086E791E00C94BA090E941B
:100300000C01209170013091710180916E019091EA
:100310006F01280F391F80916C0190916D01280F9A
:10032000391F2150310981E090E02230310510F071
:1003300080E090E008956FE670E086E791E00E942B
:10034000BA090E94940064E670E080E090E00E94A8
:10035000DB0A0E94A8006CE271E080E090E00E945D
:10036000DB0A0E94940064E670E080E090E00E9466
:10037000DB0A0E940C0186E791E00C94A1080E9420
:10038000940064E670E080E090E00E94DB0A0E9446
:10039000A80066E470E080E090E00E94DB0A0E9422
:1003A000940064E670E080E090E00E94DB0A86E75B
:1003B00091E00E94A1080C940C01CF93DF93EC0113
:1003C00086E791E00E94A1081092690110926801ED
:1003D000E0916801F0916901EC0FFD1F60816534C7
:1003E00071F086E791E00E94BC09809168019091CC
:1003F000690101969093690180936801E9CF68EBE8
:100400007BE080E090E0DF91CF910C94DB0A20E06C
:1004100042E060E186E791E00E94B0086DE770E09D
:1004200086E791E00E94BA0964EF71E080E090E015
:100430000E94DB0A86E791E00E94A10861E08091BA
:1004400074010E94620B61E0809166000E94620B61
:1004500061E080916A000E94620B61E08091680017
:100460000E94620B60E08AE10E94620B60E08BE117
:100470000E94620B60E08CE10E94620B60E08DE103
:100480000E94620B60E08EE10C94620B6AE870E0FF
:1004900086E791E00E94BA0986E791E00E94A108F0
:1004A000E0916601F0916701E257FE4F808183354C
:1004B00039F40E94A80060916200709163000DC041
:1004C0008C3419F40E94F80004C0823561F40E9453
:1004D000E4006091640070916500072E000C880BA9
:1004E000990B0E94DB0A8091660190916701019649
:1004F0009093670180936601089586E791E00E94DA
:10050000A1086BE970E086E791E00E94BA090E94B9
:10051000F80068E775E080E090E00E94DB0A0E9446
:100520000C0180917201909173018130910571F5F8
:1005300080917001909171018130910509F064C141
:1005400020916E0130916F0180916C0190916D014D
:100550002115310569F48130910551F440916A010A
:1005600050916B014130510519F40E94A800D7CF7A
:100570002230310598F4892B89F480916A01909199
:100580006B01019759F40E94BC00C9CF892B31F44B
:100590008091700190917101892B71F080916C01B3
:1005A00090916D01892B09F0BACF80916A019091E9
:1005B0006B01892B09F0B3CF0E94BF0180917201BA
:1005C000909173018130910509F04DC080917001C7
:1005D00090917101029708F0A2CF80916E019091E5
:1005E0006F01892B09F09BCF80916C0190916D0177
:1005F000892B09F094CF80916A0190916B01892B2E
:1006000009F08DCF0E949B0180917201909173013E
:10061000019709F084CF2091700130917101809190
:100620006A0190916B0121303105A1F420916E0196
:1006300030916F012130310569F420916C013091C6
:100640006D012130310531F48130910519F40E949A
:10065000E40057C0019709F062CF0E947F01892B07
:1006600009F45DCF65C0892B09F059CF80917001E5
:1006700090917101892B09F052CF80916E01909178
:100680006F01009709F057C020916C0130916D0106
:100690002230310508F04FC020916A0130916B0182
:1006A0002130310509F047C00E949B018091720101
:1006B00090917301019709F032CF20917001309130
:1006C000710180916A0190916B012130310511F522
:1006D00020916E0130916F0121303105D9F42091C4
:1006E0006C0130916D0121303105A1F4813091050B
:1006F00089F469EA70E086E791E00E94BA090E94F5
:10070000F8006091640070916500072E000C880B62
:10071000990B03CF019709F002CF0E947F01892B2B
:1007200009F4FDCE6FEA70E086E791E00E94BA0915
:100730000E944602F4CE892B09F0F1CE80916C0123
:1007400090916D01892B09F0EACE80916A01909118
:100750006B01892B09F0E3CE0E949B01809172010D
:1007600090917301019751F480916A0190916B010E
:10077000019721F40E947F01892BF1F4809172018D
:10078000909173010197D1F4809170019091710162
:100790000197A1F480916E0190916F01019771F41E
:1007A00080916C0190916D01019741F480916A01F3
:1007B00090916B01019711F40E94460280917201A1
:1007C00090917301019709F0AACE809170019091E8
:1007D0007101019709F0A3CE80916E0190916F0194
:1007E000019709F09CCE80916C0190916D01019769
:1007F00009F095CE80916A0190916B01019709F003
:100800008ECE0E949400FDCF892B09F0C7CE809137
:100810006E0190916F01029708F0C0CE80916C013B
:1008200090916D01019709F0B9CE80916A01909184
:100830006B01019709F0B2CE0E94D00070CE0F93E9
:100840001F93CF93DF93EC0166EB70E086E791E0B6
:100850000E94BA0968EE73E080E090E00E94DB0A33
:1008600086E791E00E94A108109269011092680148
:1008700088E542E553E5E0916801F0916901DE0108
:10088000AE0FBF1F9C91953409F456C0953509F001
:1008900048C03197EC0FFD1F2081233529F41196B4
:1008A0002C912C3469F519C02C3409F0FDC0119637
:1008B0002C912C3481F48083E0916801F0916901DE
:1008C000EC0FFD1F8083E0916801F0916901EC0F4E
:1008D000FD1F518326C0233581F48083E091680198
:1008E000F0916901EC0FFD1F8083E0916801F091A8
:1008F0006901EC0FFD1F418314C0223591F402C041
:10090000233579F48083E0916801F0916901EC0F5F
:10091000FD1F8083E0916801F0916901EC0FFD1FDC
:10092000918320916801309169012F5F3F4F30938F
:100930006901209368019FCF86E791E00E94A1089A
:100940006AEC70E086E791E00E94BA0968EE73E015
:1009500080E090E00E94DB0A6CED70E086E791E0B9
:100960000E94BA09109269011092680100E010E03B
:100970002091680130916901FE01E20FF31F80812F
:10098000853479F0883531F0F801E257FE4F8083E5
:100990000F5F1F4F2F5F3F4F309369012093680116
:1009A000E7CFE801C257DE4F888361EE70E086E74B
:1009B00091E00E94BA098EE891E00E94DD0168EEA4
:1009C00073E080E090E00E94DB0A109269011092CF
:1009D0006801E0916801F0916901E257FE4F808162
:1009E000853409F46AC0853571F48EE891E00E947F
:1009F0001F048091680190916901019690936901AB
:100A000080936801E6CFAEE8B1E0FD019CE442E5E9
:100A10009F012E5831408081853449F08C3411F487
:100A2000408303C0823509F490833196F1CFF901F8
:100A3000E257FE4F8083015011098091640190912B
:100A40006501FE0140E050E0BA014F5F5F4F319712
:100A5000980117FF02C02F5F3F4F35952795261746
:100A6000370754F08C9190819D9380830150110938
:100A7000082E000C990BE8CF9093650180936401D8
:100A8000709369016093680186E791E00E94A10874
:100A900066EE70E086E791E00E94BA098EE891E088
:100AA0000E94DD010E947D02223509F03ACF1196A5
:100AB0002C912C3409F035CF25CFDF91CF911F91A8
:100AC0000F91089586E791E00E94A1080E940C0111
:100AD00086E791E00E94A1088091720190917301D4
:100AE0008130910571F520917001309171012130B3
:100AF0003105E9F480916E0190916F01892B09F025
:100B00004DC080916C0190916D01019709F046C034
:100B100080916A0190916B01019709F03FC06DEEE1
:100B200070E086E791E00E94BA090C94A800232B9C
:100B3000A9F520916E0130916F012230310570F5D9
:100B400013C0009709F09FC020917001309171018E
:100B50002115310509F039C220916E0130916F01E4
:100B60002130310509F089C020916C0130916D016F
:100B70002130310579F420916A0130916B012130E7
:100B8000310541F465EF70E086E791E00E94BA0913
:100B90000C94D0008130910509F06DC080917001F6
:100BA00090917101019709F06EC020916E01309112
:100BB0006F0180916C0190916D012130310551F4EC
:100BC000009741F440916A0150916B014130510509
:100BD00009F46CC12115310549F4009739F481E01D
:100BE00090E090936B0180936A0160C121303105E0
:100BF00049F4009739F440916A0150916B01452BFB
:100C000009F454C12130310551F48130910539F492
:100C100040916A0150916B01452B09F447C1213085
:100C2000310589F5019779F580916A0190916B0101
:100C3000019749F56AEF70E086E791E00E94BA09F2
:100C40000E94F8006091600070916100072E000C16
:100C5000880B990B0E94DB0A8091680190916901D1
:100C6000FC01E455FE4F25E5208301969093690130
:100C7000809368010895892B31F4809170019091DF
:100C80007101892B71F080916C0190916D01892B1C
:100C900009F0A0C180916A0190916B01892B09F044
:100CA00099C10E94BF0180917201909173018130BE
:100CB000910509F073C080917001909171010297C4
:100CC00008F088C180916E0190916F01892B09F025
:100CD00081C180916C0190916D01892B09F07AC1DD
:100CE00080916A0190916B01892B09F073C162E0D8
:100CF00071E086E791E00E94BA090E949B01809111
:100D0000720190917301019709F064C12091700103
:100D10003091710180916A0190916B012130310510
:100D2000D1F420916E0130916F012130310599F499
:100D300020916C0130916D012130310561F48130D9
:100D4000910549F460E171E086E791E00E94BA09FB
:100D50000E94E40030C1019709F03CC10E947F016C
:100D6000892B09F437C166E171E086E791E00E94C2
:100D7000BA098091680190916901FC01E455FE4F28
:100D800023E52083019690936901809368010E9476
:100D9000A800609162007091630011C1892B09F075
:100DA00019C18091700190917101892B09F012C1D4
:100DB00080916E0190916F01009709F04CC02091D5
:100DC0006C0130916D012230310508F044C0209152
:100DD0006A0130916B0121303105E9F56FE171E075
:100DE00086E791E00E94BA090E949B0180917201FE
:100DF00090917301019709F0EDC02091700130913D
:100E0000710180916A0190916B0121303105C1F42B
:100E100020916E0130916F012130310589F42091CC
:100E20006C0130916D012130310551F48130910513
:100E300039F465EF70E086E791E00E94BA09B9C025
:100E4000019709F0C7C00E947F01892B09F4C2C035
:100E50006EE271E09CC0892B09F0BCC080916C01EE
:100E600090916D01892B09F0B5C080916A01909134
:100E70006B01892B09F0AEC063E371E086E791E076
:100E80000E94BA090E949B018091720190917301A6
:100E90000197A1F480916A0190916B01019771F41F
:100EA0000E947F01892B09F070C008C06FE471E0D7
:100EB00086E791E00E94BA090C94BC00809172010F
:100EC0009091730181309105F9F4809170019091B6
:100ED0007101019709F07EC080916E0190916F01C0
:100EE000019709F077C080916C0190916D01019795
:100EF00009F070C080916A0190916B01019709F02F
:100F000069C06BE371E043C0892B09F063C0809135
:100F1000700190917101892B09F05CC080916E0184
:100F200090916F01892B09F055C080916C019091CF
:100F30006D01892B09F04EC080916A0190916B017F
:100F4000892B09F047C063E471E086E791E00E94D5
:100F5000BA09E0916801F0916901E455FE4F85E41A
:100F600080838CEA91E00E94DD010E94940060ED94
:100F700077E080E090E00E94DB0A86E791E00E9443
:100F8000A1088CEA91E00C941F0465E571E086E706
:100F900091E00E94BA098091680190916901FC0179
:100FA000E455FE4F2CE420830196909369018093D1
:100FB00068010E94F8006091640070916500072E3E
:100FC000000C880B990B0C94DB0A2130310509F0D9
:100FD0005ACEC2CD0895CF92EF920F9387E0C82EDC
:100FE00096E0E92E05E024E043E062E086E791E048
:100FF0000E9455090F91EF90CF900895CF93DF9302
:10100000EC0160E08E810E949E0B81E090E00E94E6
:10101000170B61E08E810E949E0B81E090E00E94A0
:10102000170B60E08E810E949E0B84E690E0DF91BA
:10103000CF910C94170BCF92DF92EF92FF920F9308
:101040001F93CF93DF936C017C0187E0E80EF11CC6
:10105000C0E0D0E0062F10E0B8010C2E02C075955C
:1010600067950A94E2F76170F70181917F010E9410
:101070009E0B2196C430D10579F7C601DF91CF913F
:101080001F910F91FF90EF90DF90CF900C94FE078F
:10109000CF92DF92EF92FF920F931F93CF93DF9344
:1010A0006C017C0187E0E80EF11CC0E0D0E0062F67
:1010B00010E0B8010C2E02C0759567950A94E2F70E
:1010C0006170F70181917F010E949E0B2196C830CB
:1010D000D10579F7C601DF91CF911F910F91FF9054
:1010E000EF90DF90CF900C94FE071F93CF93DF9388
:1010F000EC01162F642F8C810E949E0B8D818F3FF7
:1011000019F060E00E949E0B8F85612F84FF06C05E
:10111000CE01DF91CF911F910C94480870E084E0DC
:10112000759567958A95E1F7CE010E941B08612F9E
:10113000CE01DF91CF911F910C941B0840E00C94DD
:10114000750861E00E949E0880ED97E00C94170BF3
:10115000FC016089262F2460208B6C600C949E0813
:10116000EF92FF920F931F93CF93DF93EC014230E6
:1011700018F08F8588608F874B8B1C8A80E48D8B5D
:101180006E8B70E0605C7F4F6F8B222329F04130C3
:1011900019F48F8584608F8761E08C810E94620BD7
:1011A0008D818F3F19F061E00E94620B61E08E81BA
:1011B0000E94620B7E0187E0E80EF11C00E010E067
:1011C0008F8584FD03C084E090E002C088E090E059
:1011D000081719074CF461E0F70181917F010E9423
:1011E000620B0F5F1F4FECCF80E593EC0E94170B53
:1011F00060E08C810E949E0B60E08E810E949E0BBD
:101200008D818F3F19F060E00E949E0B6F8564FD19
:101210001DC063E0CE010E941B0884E991E10E9499
:10122000170B63E0CE010E941B0884E991E10E9444
:10123000170B63E0CE010E941B0886E990E00E9434
:10124000170B62E0CE010E941B0816C06062CE013F
:101250000E949E0884E991E10E94170B6F856062ED
:10126000CE010E949E0886E990E00E94170B6F85D0
:101270006062CE010E949E086F856062CE010E946E
:101280009E0884E0888BCE010E94A808CE010E94AF
:10129000A10882E0898B66E0CE01DF91CF911F919A
:1012A0000F91FF90EF900C949E08CF92EF920F93C6
:1012B000FC01138212828FE591E091838083648325
:1012C0008FEF8583468327830087E186C286138656
:1012D000148615861686178620E041E060E1CF016E
:1012E0000F91EF90CF900C94B00841E00E947508E8
:1012F00081E090E00895CF92DF92EF92FF920F93FA
:101300001F93CF93DF936C017A018B01C0E0D0E093
:10131000CE15DF0581F0D8016D918D01D601ED91DB
:10132000FC910190F081E02DC6010995892B11F007
:101330002196EECF7E01C701DF91CF911F910F91D2
:10134000FF90EF90DF90CF9008956115710579F0CF
:10135000FB0101900020E9F73197AF01461B570BC5
:10136000DC01ED91FC910280F381E02D099480E095
:1013700090E008950C94A509DC01ED91FC91019099
:10138000F081E02D09948F929F92AF92BF92EF92DD
:10139000FF920F931F93CF93DF93CDB7DEB7A19743
:1013A0000FB6F894DEBF0FBECDBF7C01FA01CB01B2
:1013B00019A2223008F42AE08E010F5D1F4F822E01
:1013C000912CA12CB12CBF01A50194010E94F70B17
:1013D000F901CA01015011096A3014F4605D01C0BD
:1013E000695CD8016C93232B242B252B61F7B80162
:1013F000C7010E94A509A1960FB6F894DEBF0FBEE3
:10140000CDBFDF91CF911F910F91FF90EF90BF90D3
:10141000AF909F908F900895CF92DF92EF92FF92BE
:101420000F931F93CF93DF932115310581F4DC01D6
:10143000ED91FC910190F081E02D642FDF91CF912F
:101440001F910F91FF90EF90DF90CF9009942A3079
:10145000310501F577FF1DC06A017B01EC016DE2EA
:101460000E94BC098C0144275527BA014C195D091B
:101470006E097F092AE0CE010E94C309800F911FE7
:10148000DF91CF911F910F91FF90EF90DF90CF9060
:1014900008952AE0DF91CF911F910F91FF90EF9077
:1014A000DF90CF900C94C3099A01AB01770F660BC4
:1014B000770B0C940C0A08950E94200B0E945B0A83
:1014C0000E940702C0E0D0E00E9462052097E1F38D
:1014D0000E940000F9CF1F920F920FB60F921124B5
:1014E0002F933F938F939F93AF93BF938091CB01A3
:1014F0009091CC01A091CD01B091CE013091CA0163
:1015000026E0230F2D3720F40296A11DB11D05C042
:1015100029E8230F0396A11DB11D2093CA018093D2
:10152000CB019093CC01A093CD01B093CE018091DB
:10153000CF019091D001A091D101B091D20101963B
:10154000A11DB11D8093CF019093D001A093D10133
:10155000B093D201BF91AF919F918F913F912F9105
:101560000F900FBE0F901F9018953FB7F894809181
:10157000CF019091D001A091D101B091D20122B7B9
:1015800008B600FE05C02F3F19F00196A11DB11D40
:101590003FBFBA2FA92F982F8827820F911DA11D19
:1015A000B11DBC01CD0143E0660F771F881F991F55
:1015B0004A95D1F708958F929F92AF92BF92CF92A2
:1015C000DF92EF92FF926B017C010E94B50A4B0102
:1015D0005C01C114D104E104F10401F10E94F60B95
:1015E0000E94B50ADC01CB0188199909AA09BB0937
:1015F000883E9340A105B10560F321E0C21AD108ED
:10160000E108F10888EE880E83E0981EA11CB11C49
:10161000C114D104E104F10419F7DBCFFF90EF907E
:10162000DF90CF90BF90AF909F908F9008958330C0
:10163000910528F0880F991F04970197F1F70895F5
:10164000789483B7826083BF83B7816083BF83B799
:10165000806483BF83B7886083BF89B7816089BF97
:101660001EBC8EB582608EBD8EB581608EBD8FB57D
:1016700081608FBD85B5846085BD85B5806485BD7D
:10168000329A319A3098379A1AB80895843059F0BE
:1016900028F4813099F0823089F00895853031F056
:1016A000873041F008958FB58F7702C08FB58F7D59
:1016B0008FBD089585B58F7D85BD089583B78F7DD6
:1016C00083BF0895CF93DF9390E0FC01EC58FF4F68
:1016D0002491FC01EC56FF4F8491882361F190E046
:1016E000880F991FFC01E853FF4FC591D491FC016D
:1016F000E254FF4FA591B491611109C09FB7F894CE
:101700008881209582238883EC912E230BC0623040
:1017100061F49FB7F8948881322F309583238883B2
:10172000EC912E2B2C939FBF06C08FB7F894E881C5
:101730002E2B28838FBFDF91CF9108951F93CF93D6
:10174000DF93282F30E0F901EC5AFF4F8491F90123
:10175000EC58FF4FD491F901EC56FF4FC491CC23C4
:10176000C1F0162F81110E94460BEC2FF0E0EE0F16
:10177000FF1FE254FF4FA591B4919FB7F894111148
:1017800004C08C91D095D82302C0EC91DE2BDC9361
:101790009FBFDF91CF911F910895CF93DF93282FA3
:1017A00030E0F901EC5AFF4F8491F901EC58FF4FFA
:1017B000D491F901EC56FF4FC491CC2391F08111E3
:1017C0000E94460BEC2FF0E0EE0FFF1FEC54FF4F92
:1017D000A591B491EC91ED2381E090E021F480E0BB
:1017E00002C080E090E0DF91CF9108950895A1E2DA
:1017F0001A2EAA1BBB1BFD010DC0AA1FBB1FEE1F8B
:10180000FF1FA217B307E407F50720F0A21BB30BD5
:10181000E40BF50B661F771F881F991F1A9469F751
:1018200060957095809590959B01AC01BD01CF01AD
:101830000895EE0FFF1F0590F491E02D0994F894A0
:02184000FFCFD8
:10184200AA053C00F4010100190018002D2D0049E1
:101852006E63682046756E6374696F6E004D5352F5
:101862002077697468204C485200454E54455244D2
:10187200204445434953494F4E5300454E54455227
:1018820045442046494E414C003D4C454654003D9E
:1018920073746E6C7400454E544552454420524553
:1018A200504C4143454D454E540046494E495348DC
:1018B2004544204E45572050415448004E45573A22
:1018C200005350413D0046494E414C3D00466F7227
:1018D20077617264004C65667400205520747572DD
:1018E2006E0052542F53747274206E2072743F0033
:1018F2007269676874005374726169676874006C16
:1019020066742F737274206E206C66743F006C656F
:10191200667400542F454E442F3400542D696E7462
:10192200657200456E64206F66206D617A650052B3
:1019320069676874003420576179000000000075FF
:04194200097B090014
:103E000001C0B2C011248FE594E09EBF8DBF84B77E
:103E1000882349F0982F9A70923029F081FF02C0D0
:103E200097EF94BFCFD085E08EBD82E08BB988E15B
:103E30008AB986E880BD89E189B98EE0B0D0B89AA8
:103E400084E048E15EEF34E021E05DBD4CBD38BF69
:103E500008B602FEFDCF98B3922798BBA895815073
:103E6000A1F7C0E0D0E094D08134B1F491D0182F04
:103E70009AD0123811F482E00DC0113851F486E066
:103E800009C0853709F068C08ED08EE17DD084E905
:103E90007BD083E079D065C0823411F484E103C023
:103EA000853419F485E087D05CC0853541F470D045
:103EB000C82F6ED0D0E0D82BCC0FDD1F51C0863577
:103EC00021F484E078D080E0E5CF8436A1F560D09D
:103ED0005FD0182F5DD0D82E012F90E6E92EF12C5F
:103EE00057D0F70181937F010150D1F75CD0F5E401
:103EF000DF1201C0FFCF40E050E063E0CE0134D0DC
:103F00006E0180E6E82EF12CF7014081818150E0BE
:103F1000582B61E0C60128D0F2E0CF0ED11C125020
:103F200082E0E80EF11C1111EFCF40E050E065E0B7
:103F3000CE011AD016C0843709F0A3CF29D028D0DB
:103F4000F82E26D030D08E01F80185918F011CD03B
:103F5000FA94F110F9CF05C0813511F488E01FD033
:103F600022D080E111D07FCFFC010A0167BFE89524
:103F7000112407B600FCFDCF667029F0452B19F41B
:103F800081E187BFE89508955D9BFECF8CB90895C8
:103F90005F9BFECF5C9901C0A8958CB1089598E114
:103FA00091BD81BD0895F4DF803219F088E0F7DF1C
:103FB000FFCF84E1E9CFCF93C82FEADFC150E9F703
:103FC000CF91F1CF282E80E0EADFE0E0FF270994CF
:023FFE000206B9
:0400000300003E00BB
:00000001FF
