:100000000C942A000C9434000C9434000C943400AA
:100010000C9434000C9434000C9434000C94340090
:100020000C9434000C9434000C9434000C94340080
:100030000C9434000C9434000C9434000C94340070
:100040000C9434000C9434000C9434000C94340060
:100050000C94340011241FBECFE5D4E0DEBFCDBF29
:100060000E9436000C94C6000C94000011BA8FEF69
:1000700087BB82BBBAE065E049E150E0A6E079E0E9
:1000800080B390E08F3F910511F4B8BB31C08E3F33
:10009000910511F4A8BB40C0853F910599F468BB58
:1000A00028EB3BE0FA013197F1F721503040D1F7CE
:1000B00078BB28EB3BE0FA013197F1F72150304053
:1000C000D1F743C08D3F910599F468BB28EB3BE025
:1000D000FA013197F1F721503040D1F7A8BB28EB56
:1000E0003BE0FA013197F1F721503040D1F741C0A0
:1000F0008C3F910589F468BB88EB9BE0FA0131974E
:10010000F1F70197D9F7A8BB88EB9BE0FA0131978B
:10011000F1F70197D9F7B4CF8B3F910511F478BB74
:10012000AFCF8A3F910589F468BB88EB9BE0FA0169
:100130003197F1F70197D9F7A8BB88EB9BE0FA015B
:100140003197F1F70197D9F79BCF893F910589F452
:1001500068BB88EB9BE0FA013197F1F70197D9F77B
:1001600078BB88EB9BE0FA013197F1F70197D9F75B
:1001700087CF883F910509F083CF78BB80E29EE46A
:10018000FA013197F1F70197D9F77ACFF894FFCFB9
:00000001FF
