:100000000C942A000C9434000C9434000C943400AA
:100010000C9434000C9434000C9434000C94340090
:100020000C9434000C9434000C9434000C94340080
:100030000C9434000C9434000C9434000C94340070
:100040000C9434000C9434000C9434000C94340060
:100050000C94340011241FBECFE5D4E0DEBFCDBF29
:100060000E9436000C945C000C94000011BA8FEFD3
:1000700087BB82BB5AE049E036E02AE180B390E0DA
:100080008A3F910511F458BB0DC08B3F910511F4C7
:1000900038BB0DC08E3F910511F448BBEFCF883FB0
:1000A000910519F0893F910511F418BAE7CF8F3FF8
:0C00B000910521F728BBE2CFF894FFCFA8
:00000001FF
