:100000000C942A000C9434000C9434000C943400AA
:100010000C9434000C9434000C9434000C94340090
:100020000C9434000C9434000C9434000C94340080
:100030000C9434000C9434000C9434000C94340070
:100040000C9434000C9434000C9434000C94340060
:100050000C94340011241FBECFE5D4E0DEBFCDBF29
:100060000E9440000C9463000C94000010BC8CE0D3
:1000700089B9549A08955F9BFECF8CB190E00895A2
:100080008FEF87BB10BC8CE089B9549A84ED90E364
:100090000197F1F749E036E025E09AE05F9BFECF5B
:1000A0008CB1863411F498BBF9CF823411F428BB9B
:1000B000F5CF8C3411F438BBF1CF823511F448BB45
:0A00C000EDCF18BAEBCFF894FFCF94
:00000001FF
