:100000000C942A000C943C000C943C000C943C0092
:100010000C943C000C943C000C943C000C943C0070
:100020000C9448000C943C000C943C000C943C0054
:100030000C943C000C943C000C943C000C943C0050
:100040000C943C000C943C000C943C000C943C0040
:100050000C943C0011241FBECFE5D4E0DEBFCDBF21
:1000600010E0A0E6B0E001C01D92AA36B107E1F7AA
:100070000E945F000C94FB010C94000010BC8CE00B
:1000800089B9549A08955F9BFECF8CB190E0089592
:100090001F920F920FB60F9211248F939F9380910E
:1000A00060009091610001969093610080936000E0
:1000B0009F918F910F900FBE0F901F9018958F9268
:1000C0009F92AF92BF92CF92DF92EF92FF920F93E7
:1000D0001F93CF93DF9381E08ABB8FEF87BB10BC68
:1000E0008CE089B9549A84ED90E30197F1F7789404
:1000F00084E089BF1FBC04EC19E061E4862E50E265
:10010000D52E44E0E42E99249394C9E1D0E035E063
:10011000F32E26E0A22E99E0B92E8AE0C82E5F9B2E
:10012000FECF8CB1863411F4C8BA0DC0823411F4FC
:10013000F8BA09C08C3411F4B8BA05C0823511F48C
:10014000A8BA01C018BAD89AC8010197F1F7D8988F
:100150001DBC1CBC8EBCD8BEE8BE08B605FEFDCFDB
:100160001DBC1CBC9EBCD8BEE8BE08B605FEFDCFBB
:1001700066B577B580E090E00E944B0129E23CE350
:1001800049EE53E40E94E10020E030E040EA50E410
:100190000E94DD0018161CF218BA80E197E2FE01F9
:1001A0003197F1F70197D9F7F8BA80E197E2FE01AC
:1001B0003197F1F70197D9F7B2CFA8D008F481E0D1
:1001C00008950CD0DEC0D6D040F0CDD030F021F470
:1001D0005F3F19F0BFC0511108C1C2C0E3D098F30E
:1001E0009923C9F35523B1F3951B550BBB27AA27B8
:1001F00062177307840738F09F5F5F4F220F331F2A
:10020000441FAA1FA9F333D00E2E3AF0E0E830D0F5
:1002100091505040E695001CCAF729D0FE2F27D0F8
:10022000660F771F881FBB1F261737074807AB07C6
:10023000B0E809F0BB0B802DBF01FF2793585F4F3B
:100240002AF09E3F510568F085C0CFC05F3FECF3B8
:10025000983EDCF3869577956795B795F7959F5F00
:10026000C9F7880F911D9695879597F90895E1E054
:10027000660F771F881FBB1F621773078407BA07B3
:1002800020F0621B730B840BBA0BEE1F88F7E0950E
:100290000895E89409C097FB3EF490958095709579
:1002A00061957F4F8F4F9F4F9923A9F0F92F96E9C2
:1002B000BB279395F695879577956795B795F11137
:1002C000F8CFFAF4BB0F11F460FF1BC06F5F7F4FD4
:1002D0008F4F9F4F16C0882311F096E911C07723E6
:1002E00021F09EE8872F762F05C0662371F096E8EF
:1002F000862F70E060E02AF09A95660F771F881FBE
:10030000DAF7880F9695879597F90895990F000861
:10031000550FAA0BE0E8FEEF16161706E807F907D7
:10032000C0F012161306E407F50798F0621B730B72
:10033000840B950B39F40A2661F0232B242B252BF3
:1003400021F408950A2609F4A140A6958FEF811D96
:10035000811D089597F99F6780E870E060E0089537
:100360009FEF80EC089500240A94161617061806CD
:100370000906089500240A941216130614060506A9
:100380000895092E0394000C11F4882352F0BB0F3A
:1003900040F4BF2B11F460FF04C06F5F7F4F8F4F9D
:1003A0009F4F089557FD9058440F551F59F05F3FD8
:1003B00071F04795880F97FB991F61F09F3F79F087
:1003C00087950895121613061406551FF2CF469509
:1003D000F1DF08C0161617061806991FF1CF86958B
:1003E0007105610508940895E894BB27662777276F
:0A03F000CB0197F90895F894FFCFB0
:00000001FF
