:100000000C942A000C9434000C9434000C943400AA
:100010000C9434000C9434000C9434000C94340090
:100020000C9434000C9434000C9434000C94340080
:100030000C9434000C9434000C9434000C94340070
:100040000C9434000C9434000C9434000C94340060
:100050000C94340011241FBECFE5D4E0DEBFCDBF29
:100060000E9436000C945F000C94000011BA8FEFD0
:1000700087BB82BB6AE0F0E144ED50E320E533EC5E
:10008000E9E076E080B390E08C3F910511F468BB25
:10009000F9CF8E3F910511F478BBF4CF8D3F9105D8
:1000A00011F4E8BBEFCF8F3F910561F7F8BBCA01B0
:1000B0000197F1F768BBC9010197F1F7E3CFF89415
:0200C000FFCF70
:00000001FF
